:100000000C9450000C945A000C945A000C945A0012
:100010000C945A000C945A000C945A000C945A00F8
:100020000C945A000C945A000C945A000C945A00E8
:100030000C945A000C945A000C945A000C945A00D8
:100040000C945A000C945A000C945A000C945A00C8
:100050000C945A000C945A000C945A000C945A00B8
:100060000C945A000C945A000C945A000C945A00A8
:100070000C945A000C945A000C945A000C945A0098
:100080000C945A000C945A000C945A000C945A0088
:100090000C945A000C945A000C945A000C945A0078
:1000A00011241FBECFEFCDBFDFE3DEBF0E945C0097
:1000B0000C9480000C9400008091A00480628093D6
:1000C000A0048091A0048F7B8093A0048091B6044B
:1000D00088608093B6048091A4048F7D8093A404EB
:1000E00080E29091A80496FDFCCF8093A7042AE6B5
:1000F00034E091E0215030409040E1F700C0F1CF72
:04010000F894FFCFA1
:00000001FF
