:100000000C9450000C945A000C945A000C945A0012
:100010000C945A000C945A000C945A000C945A00F8
:100020000C945A000C945A000C945A000C945A00E8
:100030000C945A000C945A000C945A000C945A00D8
:100040000C945A000C945A000C945A000C945A00C8
:100050000C945A000C945A000C945A000C945A00B8
:100060000C945A000C945A000C945A000C945A00A8
:100070000C945A000C945A000C945A000C945A0098
:100080000C945A000C945A000C945A000C945A0088
:100090000C945A000C948E000C945A000C945A0044
:1000A00011241FBECFEFCDBFDFE3DEBF0E94B9003A
:1000B0000C94CD000C940000E0E2F4E085818160B6
:1000C0008583818181608183E0E6F8E060877187C4
:1000D0008781836087838681806486838681806848
:1000E000868385818068858308959091640895FF53
:1000F000FCCF809362080895CF93DF93EC01888151
:10010000882349F08A3019F48DE00E9475008991A6
:100110000E947500F4CFDF91CF9108951F920F9246
:100120000FB60F9211242F933F934F935F936F93CA
:100130007F938F939F93AF93BF93EF93FF93E0E6EB
:10014000F8E08481808194819F7794830E94750078
:10015000FF91EF91BF91AF919F918F917F916F919F
:100160005F914F913F912F910F900FBE0F901F9075
:1001700018956CE675E080E090E00E945C00789451
:100180008EE991E40E947C002AE684E091E021500F
:0E01900080409040E1F700C0F3CFF894FFCF1D
:0E019E0048656C6C6F20576F726C64210A000C
:00000001FF
