:100000000C9450000C945A000C945A000C945A0012
:100010000C945A000C945A000C945A000C945C00F6
:100020000C945A000C945A000C945A000C945A00E8
:100030000C945A000C945A000C945A000C945A00D8
:100040000C945A000C945A000C945A000C945A00C8
:100050000C945A000C945A000C945A000C945A00B8
:100060000C945A000C945A000C945A000C945A00A8
:100070000C945A000C945A000C945A000C945A0098
:100080000C945A000C945A000C945A000C945A0088
:100090000C945A000C945A000C945A000C945A0078
:1000A00011241FBECFEFCDBFDFE3DEBF0E947D0076
:1000B0000C94A8000C9400001F920F920FB60F92A0
:1000C00011248F939F93EF93FF93E0E6F4E09481E4
:1000D00080E189278483948180E289278483E0E01A
:1000E000FAE0838581608387FF91EF919F918F91E3
:1000F0000F900FBE0F901F90189580916004806143
:100100008093600480916004806280936004809199
:1001100064048F7E80936404809164048062809381
:1001200064048091000A8C608093000A8091000A28
:1001300081608093000A80910A0A816080930A0A94
:1001400080E090E18093260A9093270A7894FFCF6D
:04015000F894FFCF51
:00000001FF
