:100000000C9450000C945A000C945A000C945A0012
:100010000C945A000C945A000C945A000C945A00F8
:100020000C945A000C945A000C945A000C945A00E8
:100030000C945A000C945A000C945A000C945A00D8
:100040000C945A000C945A000C945A000C945A00C8
:100050000C945A000C945A000C945A000C945A00B8
:100060000C945A000C945A000C945A000C945A00A8
:100070000C945A000C945A000C945A000C945A0098
:100080000C945A000C945A000C945A000C945A0088
:100090000C945A000C945A000C945A000C945A0078
:1000A00011241FBECFEFCDBFDFE3DEBF0E945C0097
:1000B0000C94B1000C9400008091600480618093E6
:1000C00060048091600480628093600480914004A9
:1000D000806280934004809140048B7F8093400431
:1000E000809160048D7F80936004809160048B7F99
:1000F00080936004809152048860809352048091C0
:100100007104886080937104809172048860809388
:1001100072048091480482FF04C08091640480616D
:1001200003C0809164048F7E80936404809168048E
:1001300081FF04C080916404806203C080916404E4
:100140008F7D809364048091680482FF04C0809155
:100150004404806203C0809144048F7D80934404F2
:06016000D8CFF894FFCF98
:00000001FF
