:100000000C9450000C945A000C945A000C945A0012
:100010000C945A000C945A000C945A000C945A00F8
:100020000C945A000C945A000C945A000C945A00E8
:100030000C945A000C945A000C945A000C945A00D8
:100040000C945A000C945A000C945A000C945A00C8
:100050000C945A000C945A000C945A000C945A00B8
:100060000C945A000C945A000C945A000C945A00A8
:100070000C945A000C945A000C945A000C945A0098
:100080000C945A000C945A000C945A000C945A0088
:100090000C945A000C945A000C945A000C945A0078
:1000A00011241FBECFEFCDBFDFE3DEBF0E945C0097
:1000B0000C94F4000C9400008091600480618093A3
:1000C00060048091600480628093600480914004A9
:1000D000806280934004809140048B7F8093400431
:1000E000809160048D7F80936004809160048B7F99
:1000F00080936004809152048860809352048091C0
:100100007104886080937104809172048860809388
:1001100072048091000A81608093000A8091030A32
:1001200081608093030A83E08093E4058091010A53
:1001300080628093010A8091010A80648093010AA1
:100140008FEF8093270A80932B0A80932D0A2FEF3D
:100150009FEF81E03091680431FD0BC0813011F0D8
:1001600081E001C082E0EFE4F3EC3197F1F700C0E9
:1001700000003091480432FD0FC0823011F0915FD1
:1001800001C0215F90932B0A20932D0AEFE4F3EC3A
:100190003197F1F700C000003091680432FD0FC0C4
:1001A000823011F09F5001C02F5090932B0A209362
:1001B0002D0AEFE4F3EC3197F1F700C00000E7E817
:1001C000F3E13197F1F700C00000813031F4309154
:1001D0004404306230934404BDCF809144048F7D49
:0C01E0008093440482E0B6CFF894FFCF77
:00000001FF
