:100000000C9478030C9495030C9495030C9495032D
:100010000C9495030C9495030C9495030C94950300
:100020000C9495030C9495030C9495030C949503F0
:100030000C9495030C9495030C9495030C949503E0
:100040000C9495030C9495030C9495030C949503D0
:100050000C9495030C9495030C9495030C949503C0
:100060000C9495030C9495030C9495030C949503B0
:100070000C9495030C9495030C9495030C949503A0
:100080000C9495030C9495030C9495030C94950390
:100090000C9495030C940C040C9495030C94950308
:1000A00000000000005C00000C000C007C287C2894
:1000B00058DC68002410480028542840000C000038
:1000C000007884008478000054385400107C1000BC
:1000D00080400000101010000040000060100C0074
:1000E00038543800487C40004864580044542C0080
:1000F0001C107C005C5424003854240064140C0050
:1001000068542C0048543800004800008048000023
:10011000102844002828280044281000045408000F
:1001200038445C00781478007C5428003844280057
:100130007C4438007C5444007C140400384474002F
:100140007C107C00447C440020403C007C106C000F
:100150007C4040007C187C0078103C00384438001B
:100160007C1408003844B8007C146800485424000B
:10017000047C04007C407C003C603C007C307C00C3
:100180006C106C000C700C0064544C00007C44003B
:100190000C106000447C000008040800808080008F
:1001A00000040800304878007C483000304848009F
:1001B00030487C00306850001078140090A8780017
:1001C0007C08700050744000808074007C106800CF
:1001D000447C400078107800780870003048300087
:1001E000F82810003048F80078100800505828000F
:1001F000083C4800384078003840380078207800C3
:100200004830480098A0780048685800107884006A
:10021000007C00008478100008040804000000003E
:100220000000005F00000007000700147F147F1427
:10023000242A7F2A1223130864623649552250006B
:1002400005030000001C2241000041221C00082A76
:100250001C2A0808083E080800503000000808085A
:100260000808006060000020100804023E51494563
:100270003E00427F400042615149462141454B3199
:100280001814127F1027454545393C4A4949300129
:10029000710905033649494936064949291E003680
:1002A00036000000563600000008142241141414D1
:1002B00014144122140800020151090632497941FF
:1002C0003E7E1111117E7F494949363E414141220E
:1002D0007F4141221C7F494949417F090901013E73
:1002E000414151327F0808087F00417F4100204092
:1002F000413F017F081422417F404040407F02047B
:10030000027F7F0408107F3E4141413E7F09090979
:10031000063E4151215E7F09192946464949493126
:1003200001017F01013F4040403F1F2040201F7FCF
:100330002018207F631408146303047804036151B8
:1003400049454300007F4141020408102041417F9C
:100350000000040201020440404040400001020449
:100360000020545454787F4844443838444444204E
:10037000384444487F3854545418087E0901020810
:100380001454543C7F0804047800447D400020400D
:10039000443D00007F10284400417F40007C041849
:1003A00004787C0804047838444444387C141414D9
:1003B00008081414187C7C08040408485454542079
:1003C000043F4440203C4040207C1C2040201C3CFA
:1003D0004030403C44281028440C5050503C446469
:1003E000544C44000836410000007F0000004136B4
:1003F00008000201030201000000000000000000EC
:10040000065F5F06000000000707000707000014F2
:100410007F7F147F7F1400242E6B6B3A12000046FE
:100420006630180C666200307A4F5D377A480004F7
:1004300007030000000000001C3E634100000000B4
:1004400041633E1C000000082A3E1C1C3E2A08088E
:10045000083E3E0808000000A0E060000000000820
:100460000808080808000000006060000000006044
:1004700030180C060301003E7F594D7F3E000042BC
:10048000427F7F40400000627359496F660000223E
:100490006349497F360000181C16137F7F10002720
:1004A0006745457D3900003C7E4B497930000003AB
:1004B0006371190F070000367F49497F3600000637
:1004C0004F49693F1E000000006C6C0000000000F6
:1004D000A0EC6C00000000081C3663410000001412
:1004E00014141414140000004163361C08000002A8
:1004F0000351590F0600003E7F415D5D1F1E007CC9
:100500007E13137E7C0000417F7F49497F36001CAB
:100510003E634141632200417F7F41637F1C004174
:100520007F7F495D416300417F7F491D0103001CBE
:100530003E6341517372007F7F08087F7F00000097
:10054000417F7F41000000307040417F3F0100410A
:100550007F7F081C776300417F7F41406070007F90
:100560007F060C067F7F007F7F060C187F7F001CB4
:100570003E6341633E1C00417F7F49090F06001E18
:100580003F21717F5E0000417F7F19396F46002651
:10059000674D597B32000003417F7F410300007F9C
:1005A0007F40407F7F00001F3F60603F1F00007F53
:1005B0007F3018307F7F0063771C081C776300074B
:1005C0004F78784F0700006773594D4763710000FB
:1005D0007F7F41410000000103060C1830600000DD
:1005E00041417F7F000000080C0603060C080080D4
:1005F000808080808080800000030704000000204D
:100600007454543C784000413F7F44447C38003867
:100610007C44446C280000307848493F7F400038D3
:100620007C54545C180000487E7F49030200009807
:10063000BCA4A4F87C0400417F7F08047C780000FF
:10064000447D7D4000000040C484FD7D00000041E9
:100650007F7F10386C440000417F7F400000007CA9
:100660007C0C180C7C78007C7C04047C78000038BE
:100670007C44447C38000084FCF8A4243C18001816
:100680003C24A4F8FC8400447C78441C18000048F6
:100690005C54547424000000043E7F442400003C59
:1006A0007C40403C7C40001C3C60603C1C00003CAA
:1006B0007C6030607C3C00446C3810386C44009C9A
:1006C000BCA0A0FC7C00004C64745C4C640000087E
:1006D000083E7741410000000000777700000041AC
:1006E00041773E08080000020301030203010000F5
:1006F00011241FBECFEFCDBFDFE3DEBF18E2A0E0C5
:10070000B8E2E3E0F5E102C005900D92AA32B1072C
:10071000D9F728E2AAE2B8E201C01D92AB32B207D3
:10072000E1F70E9421070C94790A0C940000E0E0A4
:10073000F6E0808184608083828180618283A0E68C
:10074000B4E08C918E7F8C9350968C9150978860FA
:1007500050968C93868181608683808181608083BE
:10076000089590910606892B8093060683EC99E004
:100770000197F1F700C00000809108068160809326
:10078000080683EC99E00197F1F700C00000809122
:100790000B0680FFFCCF83EC99E00197F1F700C0D6
:1007A0000000809110062091110690E0922B089590
:1007B000E0E2F4E0858181608583818181608183CD
:1007C000E0E6F8E08CE6808785E0818787818360BA
:1007D000878386818064868386818068868385811D
:1007E0008068858308959091640895FFFCCF80937D
:1007F00062080895CF93DF93EC018881882349F044
:100800008A3019F48DE00E94F30389910E94F3036A
:10081000F4CFDF91CF9108951F920F920FB60F92F0
:1008200011242F933F934F935F936F937F938F93F5
:100830009F93AF93BF93EF93FF93E0E6F8E084813B
:10084000808194819F7794830E94F303FF91EF91BD
:10085000BF91AF919F918F917F916F915F914F91D8
:100860003F912F910F900FBE0F901F90189580E52C
:1008700080930104E0E4F4E080E481838583E0EC8C
:10088000F8E08081816280838181846081838281BC
:1008900081608283089590E4909346048093C40815
:1008A0008091C30887FFFCCF8091C40880E48093C7
:1008B0004504089580912A280895E0E4F4E080E852
:1008C0008683ADE8B0E21197F1F7000085838DE8EB
:1008D00090E20197F1F700000895813021F488E05B
:1008E000809345040895811103C088E080934604F5
:1008F000089598E0909346040C944B0498E09093EC
:1009000045040C944B041F93CF93DF9380550E94B2
:100910007904C0E8D0E018E01093450480E00E941C
:100920004B042197C9F7DF91CF911F91089580E083
:100930000E94830481E00E94830482E00E94830479
:1009400083E00C948304E0E4F4E080E8818388E0B1
:10095000818385830E945D048EEA0E94790485ED7F
:100960000E94790480EF0E94790488EA0E94790449
:1009700080E20E94790483ED0E94790480E00E9465
:1009800079048DE80E94790484E10E94790480E270
:100990000E94790480E00E94790481EA0E9479042F
:1009A00085EA0E94790488EC0E9479048FE70E940E
:1009B000790482E20E94790480E00E94790483E055
:1009C0000E9479048AED0E94790482E00E947904F1
:1009D00081E80E9479048FEF0E94790489ED0E94DA
:1009E000790481E10E9479048BED0E94790480E210
:1009F0000E94790486EA0E94790484EA0E947904BC
:100A00008FEA0E9479040C949704CF93C82F80EB4F
:100A10008C0F0E947904C0932A28CF910895CF9318
:100A2000DF93D82FC62F80EB8D0F0E947904D093CF
:100A30002A288C2F8F700E9479048C2F82958F70BA
:100A4000805FDF91CF910C9479040F931F93CF9324
:100A5000DF938A3039F480912A2868E08F5F0E9402
:100A60000F0519C094E08902E001112400E010E0B4
:100A7000C058D109FE01E00FF11FE056FF4F8591EC
:100A800094910E947E040F5F1F4F0430110591F76F
:100A900080E00E947E0480E090E0DF91CF911F9182
:100AA0000F9108950F931F93CF93DF938A3039F4FA
:100AB00080912A2868E08F5F0E940F0519C095E099
:100AC0008902E001112400E010E0C05AD109FE01C2
:100AD000E00FF11FE45EFD4F859194910E947E042A
:100AE0000F5F1F4F0530110591F780E00E947E04D3
:100AF00080E090E0DF91CF911F910F9108950F93C7
:100B00001F93CF93DF938A3039F480912A2868E0CD
:100B10008F5F0E940F0515C098E08902E001112443
:100B200000E010E0DA95FE01E00FF11FE950FC4F04
:100B3000859194910E947E040F5F1F4F0430110530
:100B400091F780E090E0DF91CF911F910F91089590
:100B5000CF93C82F81E80E9479048C2FCF910C94F9
:100B60007904CF93DF93CDB7DEB78D81AE01485FB7
:100B70005F4F6E817F81843019F48CE198E207C069
:100B8000883019F480E098E202C08EE098E20E947A
:100B9000A707DF91CF91089560E080E00E940F05E4
:100BA0000C949704CF936CE081E00E940F0588EFCE
:100BB0000E947E046CE082E00E940F058FE10E949B
:100BC0007E0463E781E00E940F0588EF0E947E04A7
:100BD00063E782E00E940F058FE10E947E04CDE072
:100BE0006C2F81E00E940F0588E00E947E046C2F2C
:100BF00082E00E940F0580E10E947E04CF5FC23731
:100C000079F7CF9108950F931F93CF93DF938115B9
:100C100024E0920710F08FEF93E06AE070E00E940A
:100C20006307162F072FDDE0D60FCDE0CD1781F03B
:100C30006C2F81E00E940F0588EF0E947E046C2FCC
:100C400082E00E940F058FE10E947E04CF5FEECF0D
:100C5000C12FD02FC636D10591F01C2F135F612F05
:100C600081E00E940F0588E00E947E04612F82E0EF
:100C70000E940F0580E10E947E042196EBCFDF9158
:100C8000CF911F910F9108952F923F924F925F92B3
:100C90006F927F928F929F92AF92BF92CF92DF928C
:100CA000EF92FF920F931F93CF93DF93CDB7DEB7F1
:100CB0002897CDBFDEBF4C0124E02A83840119822E
:100CC000F801A4907096E4907096649070964490A9
:100CD0007096249070969491709684917096E49199
:100CE0001F821886B12CCE2ED12CF12C712C512CB8
:100CF000312C292F30E02B833C83E82FF0E0ED836B
:100D0000FE83A5010F8002C0559547950A94E2F72E
:100D10004170C6010F8002C0959587950A94E2F74D
:100D20009695982F882797958795482BF7010F80E0
:100D300002C0F595E7950A94E2F7E170FF27EE0F00
:100D4000FF1F4E2BC3010F8002C0959587950A9413
:100D5000E2F781709927880F991F880F991F482BF8
:100D6000B2010F8002C0759567950A94E2F7617031
:100D70007727E3E0660F771FEA95E1F7242F262B0C
:100D8000A1010F8002C0559547950A94E2F7417082
:100D90005527F4E0440F551FFA95E1F7422B2B81BC
:100DA0003C810F8002C0359527950A94E2F72170A7
:100DB0003327A5E0220F331FAA95E1F7242B8D815D
:100DC0009E810F8002C0959587950A94E2F7817005
:100DD0009927B6E0880F991FBA95E1F7822B0E94F8
:100DE0007E042F8138852F5F3F4F2F83388728302F
:100DF000310509F086CF39813F5F39830F5F1F4F7F
:100E0000303109F05DCF8A8181508A8390E8890E64
:100E1000911C811153CF2896CDBFDEBFDF91CF91BA
:100E20001F910F91FF90EF90DF90CF90BF90AF9008
:100E30009F908F907F906F905F904F903F902F90FA
:100E40000895CF93DF93CDB7DEB7A197CDBFDEBFB7
:100E50000E9437040E94A3040E94D8030E949703B3
:100E600024ED8CED92E3215080409040E1F700C0EA
:100E7000000086EF94E50E94FA0386EF94E59F93C5
:100E80008F9385E08F930E94B1050F900F900F9084
:100E90002AE28CE29AE0215080409040E1F7000085
:100EA00081E00E94B10340E150E0BE016F5F7F4FDF
:100EB0000E947707CE0101960E94FA0381E095E532
:100EC0000E94FA03E5CFAA1BBB1B51E107C0AA1F72
:100ED000BB1FA617B70710F0A61BB70B881F991FDB
:100EE0005A95A9F780959095BC01CD01089545329A
:100EF000510520F4423010F00C948207FB0110825F
:100F0000CB010895BB274A3031F4992322F4BDE286
:100F1000909581959F4F0C948E07BB27FB01552719
:100F2000AA27880F991FAA1FA41710F0A41B839546
:100F30005051B9F7A05DAA3308F0A95DA1930097BD
:100F400079F7B111B1931192CB010C949E09ABE0EA
:100F5000B0E0EDEAF7E00C94480A6C017B018A01ED
:100F6000FC0116821782838181FFCCC1CE010196DC
:100F70003C01F6019381F70193FD859193FF8191E7
:100F80007F01882309F4BAC1853239F493FD859134
:100F900093FF81917F01853229F4B60190E00E9490
:100FA000AE09E7CF912C212C312CFFE1F315D8F0BD
:100FB0008B3279F038F4803279F08332A1F4232D2A
:100FC00020611DC08D3261F0803369F4232D2160D2
:100FD00016C0832D8260382EE32DE4603E2E2AC099
:100FE000F32DF8601DC037FC2DC020ED280F2A30EE
:100FF00040F08E32B9F436FC81C1232D2064322EAC
:1010000019C036FE06C08AE0989E200D1124922E4B
:1010100011C0EAE02E9E200D1124222EF32DF06245
:101020003F2E08C08C3621F4832D8068382E02C0F4
:10103000883641F4F70193FD859193FF81917F01FB
:101040008111B3CF982F9F7D9554933028F40C5F76
:101050001F4F9FE399830DC0833631F0833771F0C2
:10106000833509F059C021C0F801808189830E5F62
:101070001F4F88248394912C530113C02801F2E060
:101080004F0E511CF801A080B18036FE03C0692DBF
:1010900070E002C06FEF7FEFC5010E9493094C0121
:1010A0008201F32DFF773F2E16C0280122E0420E69
:1010B000511CF801A080B18036FE03C0692D70E09C
:1010C00002C06FEF7FEFC5010E9488094C01F32D2C
:1010D000F0683F2E820133FC1BC0822D90E0881601
:1010E0009906B0F4B60180E290E00E94AE092A941D
:1010F000F4CFF50137FC859137FE81915F01B60190
:1011000090E00E94AE0921102A9421E0821A9108F1
:101110008114910471F7E8C0843611F0893641F5E5
:10112000F80137FE07C060817181828193810C5F75
:101130001F4F08C060817181072E000C880B990B2E
:101140000E5F1F4FF32DFF763F2E97FF09C090953E
:101150008095709561957F4F8F4F9F4FF0683F2E20
:101160002AE030E0A3010E94EA09882E861845C0D3
:10117000853731F4232D2F7EB22E2AE030E025C0B2
:10118000932D997FB92E8F36C1F018F4883579F0F8
:10119000B5C0803719F0883721F0B0C0E92FE06181
:1011A000BE2EB4FE0DC0FB2DF460BF2E09C034FE70
:1011B0000AC0292F2660B22E06C028E030E005C004
:1011C00020E130E002C020E132E0F801B7FE07C0C4
:1011D00060817181828193810C5F1F4F06C06081A5
:1011E000718180E090E00E5F1F4FA3010E94EA0929
:1011F000882E8618FB2DFF773F2E36FE0DC0232D3F
:101200002E7FA22E891458F434FE0BC032FC09C084
:10121000832D8E7EA82E05C0B82CA32C03C0B82C1D
:1012200001C0B92CA4FE0FC0FE01E80DF11D8081A4
:10123000803321F49A2D997EA92E09C0A2FE06C002
:10124000B394B39404C08A2D867809F0B394A3FCB8
:1012500011C0A0FE06C0B21488F4280C922C9B1872
:101260000EC0B21460F4B60180E290E00E94AE09B4
:10127000B394F7CFB21418F42B1802C0982C212C79
:10128000A4FE10C0B60180E390E00E94AE09A2FE69
:1012900017C0A1FC03C088E790E002C088E590E099
:1012A000B6010CC08A2D867859F0A1FE02C08BE2EF
:1012B00001C080E2A7FC8DE2B60190E00E94AE0979
:1012C000891438F4B60180E390E00E94AE099A9444
:1012D000F7CF8A94F301E80DF11D8081B60190E00B
:1012E0000E94AE098110F5CF222009F442CEB6014A
:1012F00080E290E00E94AE092A94F6CFF601868142
:10130000978102C08FEF9FEF2B96E2E10C94610A68
:10131000FC010590615070400110D8F780959095C0
:101320008E0F9F1F0895FC016150704001900110C5
:10133000D8F7809590958E0F9F1F0895DC01FC01D2
:10134000672F71917723E1F7329704C07C916D93F9
:1013500070836291AE17BF07C8F308950F931F9370
:10136000CF93DF93FB01238121FD03C08FEF9FEF1C
:101370002CC022FF16C04681578124813581421737
:10138000530744F4A081B1819D012F5F3F4F20831B
:1013900031838C93268137812F5F3F4F268337839C
:1013A00014C08B01EC01FB010084F185E02D09954F
:1013B000892BE1F6D80116968D919C91179701968D
:1013C00016968D939C931797CE01DF91CF911F9125
:1013D0000F910895FA01AA27283051F1203181F1A7
:1013E000E8946F936E7F6E5F7F4F8F4F9F4FAF4F2D
:1013F000B1E03ED0B4E03CD0670F781F891F9A1F40
:10140000A11D680F791F8A1F911DA11D6A0F711DF3
:10141000811D911DA11D20D009F468943F912AE0FF
:10142000269F11243019305D3193DEF6CF010895E7
:10143000462F4770405D4193B3E00FD0C9F7F6CF18
:10144000462F4F70405D4A3318F0495D31FD4052E0
:10145000419302D0A9F7EACFB4E0A6959795879576
:1014600077956795BA95C9F7009761057105089555
:101470009B01AC010A2E0694579547953795279501
:10148000BA95C9F7620F731F841F951FA01D089599
:101490002F923F924F925F926F927F928F929F9284
:1014A000AF92BF92CF92DF92EF92FF920F931F9372
:1014B000CF93DF93CDB7DEB7CA1BDB0BCDBFDEBF4B
:1014C00009942A88398848885F846E847D848C8456
:1014D0009B84AA84B984C884DF80EE80FD800C815F
:1014E0001B81AA81B981CE0FD11DCDBFDEBFED0119
:0614F0000895F894FFCFFF
:0D14F600496E697469616C697365640A0070
:1015030000000002000000007F0500000000000052
:10151300000200000000520500000000000000026D
:0A1523000000000025050000000094
:00000001FF
